:03000000020006F5
:03005F0002000399
:0300030002008078
:2000620085820885830990C3501200ADAE82AF838E048F051EBEFF011FEC4D70F32275A0A6
:20008200FE7E017F00EE600280047E017F00900001C007C006120062D006D0078E0574FF4B
:0B00A2006DF5A0EE2EFEEF33FF80DABC
:06003500E478FFF6D8FD9F
:200013007900E94400601B7A009000CE780175A000E493F2A308B8000205A0D9F4DAF275C5
:02003300A0FF2C
:1D00AD00E5828508F0A4C582C0F08509F0A4D0F025F0C5838508F0A42583F5832215
:20003B007800E84400600A790175A000E4F309D8FC7800E84400600C7900900001E4F0A3C3
:04005B00D8FCD9FAFA
:0D0006007581091200CAE582600302000343
:0400CA007582002219
:00000001FF
